:20000000001210111012101E0503060507020706060F00000401060E0607060C06051C10B0
:200020000000000000000D0F1C102000000000000000000000000000000000000000000058
:20004000001210111012101E0503060507020706060F00000401060E0607060C06051C1070
:2000600003000D0F0000000000000000000000000000000000000000000000000000004021
:20008000001210111012101E0503060507020706060F00000401060E0607060C06051C1030
:2000A000030403050D0F0000000000000000004000000000000000000000000000000000D5
:2000C000001210111012101E0503060507020706060F00000401060E0607060C06051C10F0
:2000E000030903000D0F000000000000000000000000000000000000000000000000004095
:20010000001210111012101E0503060507020706060F00000401060E0607060C06051C10AF
:200120000301030303050D0F00000000000000000000000000000000000000000000004051
:20014000001210111012101E0503060507020706060F00000401060E0607060C06051C106F
:200160000301030803000D0F00000000000000000000000000000000000000000000004011
:20018000001210111012101E05030405040E0503040F0502000000000000000000001C106B
:2001A0000000000000000D0F1C1020000000000000000000000000000000000000000000D7
:2001C00000000000000000000000000000000000000000000000000000000000000000001F
:2001E0000000000000000000000000000000000000000000000000000000000000000000FF
:2002000003030303030303030303030303030303030303030303030303030303030303037E
:2002200003030303030303030303030303030303030303030303030303030303030303035E
:2002400003030303030303030303030303030303030303030303030303030303030303033E
:2002600003030303030303030303030303030303030303030303030303030303030303031E
:200280000303030303030303030303030303030303030303030303030303030303030303FE
:2002A0000303030303030303030303030303030303030303030303030303030303030303DE
:2002C0000303030303030303030303030303030303030303030303030303030303030303BE
:2002E00003030303030303030303030303030303030303030303030303030303030303039E
:200300000000000000000000000000000000000000000000000000000000000000000000DD
:200320000000000000000000000000000000000000000000000000000000000000000000BD
:2003400000000000000000000000000000000000000000000000000000000000000000009D
:20036000000000000101010101010101010101010101010101010101010101010101010161
:2003800001010101010101010101010101010101010101010101010101010101010101013D
:2003A00001010101010101010101010101010101010101010101010101010101010101011D
:2003C0000101010101010101010101010101010101010101010101010101010101010101FD
:2003E0000101010101010101010101010101010101010101010101010101010101010101DD
:200400000000000000000000000001010101010101010101020202020202020202020303B8
:20042000030303030303030304040404040404040404050505050505050505050606060632
:200440000606060606060707070707070707070708080808080808080808090909090909AC
:2004600009090909000000000000000000000101010101010101010102020202020202023E
:200480000202030303030303030303030404040404040404040405050505050505050505E0
:2004A000060606060606060606060707070707070707070708080808080808080808090958
:2004C0000909090909090909000000000000000000000101010101010101010102020202C2
:2004E00002020202020203030303030303030303040404040404040404040505050505058C
:20050000000102030405060708090001020304050607080900010203040506070809000153
:2005200002030405060708090001020304050607080900010203040506070809000102032F
:2005400004050607080900010203040506070809000102030405060708090001020304050B
:200560000607080900010203040506070809000102030405060708090001020304050607E7
:200580000809000102030405060708090001020304050607080900010203040506070809C3
:2005A0000001020304050607080900010203040506070809000102030405060708090001B3
:2005C00002030405060708090001020304050607080900010203040506070809000102038F
:2005E00004050607080900010203040506070809000102030405060708090001020304056B
:00000001FF
